{
    "_format": "hh-sol-artifact-1",
    "contractName": "healthCare",
    "sourceName": "contracts/healthcare.sol",
    "abi": [
        {
            "inputs": [],
            "stateMutability": "nonpayable",
            "type": "constructor"
        },
        {
            "inputs": [
                {
                    "internalType": "string",
                    "name": "_file_name",
                    "type": "string"
                },
                {
                    "internalType": "string",
                    "name": "_file_type",
                    "type": "string"
                },
                {
                    "internalType": "bytes32",
                    "name": "_fileHash",
                    "type": "bytes32"
                }
            ],
            "name": "addFile",
            "outputs": [],
            "stateMutability": "nonpayable",
            "type": "function"
        },
        {
            "inputs": [
                {
                    "internalType": "string",
                    "name": "_file_name",
                    "type": "string"
                },
                {
                    "internalType": "string",
                    "name": "_file_type",
                    "type": "string"
                },
                {
                    "internalType": "bytes32",
                    "name": "_file_hash",
                    "type": "bytes32"
                }
            ],
            "name": "addUserFiles",
            "outputs": [],
            "stateMutability": "nonpayable",
            "type": "function"
        },
        {
            "inputs": [
                {
                    "internalType": "address",
                    "name": "",
                    "type": "address"
                },
                {
                    "internalType": "uint256",
                    "name": "",
                    "type": "uint256"
                }
            ],
            "name": "doctorAppointments",
            "outputs": [
                {
                    "internalType": "address",
                    "name": "doctor_id",
                    "type": "address"
                },
                {
                    "internalType": "address",
                    "name": "patient_id",
                    "type": "address"
                },
                {
                    "internalType": "string",
                    "name": "appointment_details",
                    "type": "string"
                }
            ],
            "stateMutability": "view",
            "type": "function"
        },
        {
            "inputs": [],
            "name": "getDoctorInfo",
            "outputs": [
                {
                    "internalType": "string",
                    "name": "",
                    "type": "string"
                },
                {
                    "internalType": "address",
                    "name": "",
                    "type": "address"
                },
                {
                    "internalType": "address[]",
                    "name": "",
                    "type": "address[]"
                }
            ],
            "stateMutability": "view",
            "type": "function"
        },
        {
            "inputs": [
                {
                    "internalType": "bytes32",
                    "name": "fileHashId",
                    "type": "bytes32"
                }
            ],
            "name": "getFileInfo",
            "outputs": [
                {
                    "components": [
                        {
                            "internalType": "string",
                            "name": "file_name",
                            "type": "string"
                        },
                        {
                            "internalType": "string",
                            "name": "file_type",
                            "type": "string"
                        },
                        {
                            "internalType": "bytes32",
                            "name": "file_hash",
                            "type": "bytes32"
                        }
                    ],
                    "internalType": "struct File.files",
                    "name": "",
                    "type": "tuple"
                }
            ],
            "stateMutability": "view",
            "type": "function"
        },
        {
            "inputs": [],
            "name": "getPatientInfo",
            "outputs": [
                {
                    "internalType": "string",
                    "name": "",
                    "type": "string"
                },
                {
                    "internalType": "address",
                    "name": "",
                    "type": "address"
                },
                {
                    "internalType": "uint8",
                    "name": "",
                    "type": "uint8"
                },
                {
                    "internalType": "bytes32[]",
                    "name": "",
                    "type": "bytes32[]"
                },
                {
                    "internalType": "address[]",
                    "name": "",
                    "type": "address[]"
                }
            ],
            "stateMutability": "view",
            "type": "function"
        },
        {
            "inputs": [
                {
                    "internalType": "address",
                    "name": "pat",
                    "type": "address"
                }
            ],
            "name": "getPatientInfoForDoctor",
            "outputs": [
                {
                    "internalType": "string",
                    "name": "",
                    "type": "string"
                },
                {
                    "internalType": "uint8",
                    "name": "",
                    "type": "uint8"
                },
                {
                    "internalType": "address",
                    "name": "",
                    "type": "address"
                },
                {
                    "components": [
                        {
                            "internalType": "string",
                            "name": "file_name",
                            "type": "string"
                        },
                        {
                            "internalType": "string",
                            "name": "file_type",
                            "type": "string"
                        },
                        {
                            "internalType": "bytes32",
                            "name": "file_hash",
                            "type": "bytes32"
                        }
                    ],
                    "internalType": "struct File.files[]",
                    "name": "",
                    "type": "tuple[]"
                }
            ],
            "stateMutability": "view",
            "type": "function"
        },
        {
            "inputs": [
                {
                    "internalType": "address",
                    "name": "sender",
                    "type": "address"
                }
            ],
            "name": "getUserFiles",
            "outputs": [
                {
                    "components": [
                        {
                            "internalType": "string",
                            "name": "file_name",
                            "type": "string"
                        },
                        {
                            "internalType": "string",
                            "name": "file_type",
                            "type": "string"
                        },
                        {
                            "internalType": "bytes32",
                            "name": "file_hash",
                            "type": "bytes32"
                        }
                    ],
                    "internalType": "struct File.files[]",
                    "name": "",
                    "type": "tuple[]"
                }
            ],
            "stateMutability": "view",
            "type": "function"
        },
        {
            "inputs": [
                {
                    "internalType": "address",
                    "name": "doctor_id",
                    "type": "address"
                }
            ],
            "name": "grantAccessToDoctor",
            "outputs": [],
            "stateMutability": "nonpayable",
            "type": "function"
        },
        {
            "inputs": [
                {
                    "internalType": "address",
                    "name": "",
                    "type": "address"
                },
                {
                    "internalType": "uint256",
                    "name": "",
                    "type": "uint256"
                }
            ],
            "name": "patientAppointments",
            "outputs": [
                {
                    "internalType": "address",
                    "name": "doctor_id",
                    "type": "address"
                },
                {
                    "internalType": "address",
                    "name": "patient_id",
                    "type": "address"
                },
                {
                    "internalType": "string",
                    "name": "appointment_details",
                    "type": "string"
                }
            ],
            "stateMutability": "view",
            "type": "function"
        },
        {
            "inputs": [
                {
                    "internalType": "string",
                    "name": "_name",
                    "type": "string"
                }
            ],
            "name": "signupDoctor",
            "outputs": [],
            "stateMutability": "nonpayable",
            "type": "function"
        },
        {
            "inputs": [
                {
                    "internalType": "string",
                    "name": "_name",
                    "type": "string"
                },
                {
                    "internalType": "uint8",
                    "name": "_age",
                    "type": "uint8"
                },
                {
                    "internalType": "string",
                    "name": "_residence_address",
                    "type": "string"
                },
                {
                    "internalType": "string",
                    "name": "_contact_number",
                    "type": "string"
                },
                {
                    "internalType": "string",
                    "name": "_email_id",
                    "type": "string"
                }
            ],
            "name": "signupPatient",
            "outputs": [],
            "stateMutability": "nonpayable",
            "type": "function"
        }
    ],
    "bytecode": "0x608060405234801561001057600080fd5b5033600760006101000a81548173ffffffffffffffffffffffffffffffffffffffff021916908373ffffffffffffffffffffffffffffffffffffffff160217905550614cb5806100616000396000f3fe608060405234801561001057600080fd5b50600436106100b45760003560e01c80636459d52f116100715780636459d52f146101a55780636a85de14146101c157806379f0296d146101f3578063b380f5c61461020f578063dbc51a721461022f578063fe59cc1a1461024b576100b4565b80631c8e251c146100b95780631fc37922146100d5578063326df6641461010557806352f7347b1461012757806357cd46f51461015757806361ec9edb14610189575b600080fd5b6100d360048036038101906100ce91906142b6565b61027e565b005b6100ef60048036038101906100ea91906142b6565b610b23565b6040516100fc919061483f565b60405180910390f35b61010d610cef565b60405161011e9594939291906148a6565b60405180910390f35b610141600480360381019061013c919061431b565b611542565b60405161014e9190614961565b60405180910390f35b610171600480360381019061016c91906142df565b611751565b60405161018093929190614801565b60405180910390f35b6101a3600480360381019061019e9190614404565b611860565b005b6101bf60048036038101906101ba9190614344565b612060565b005b6101db60048036038101906101d691906142df565b61241a565b6040516101ea93929190614801565b60405180910390f35b61020d60048036038101906102089190614385565b612529565b005b610217612a27565b60405161022693929190614861565b60405180910390f35b61024960048036038101906102449190614385565b612e0e565b005b610265600480360381019061026091906142b6565b6133e6565b604051610275949392919061490e565b60405180910390f35b336000600260008373ffffffffffffffffffffffffffffffffffffffff1673ffffffffffffffffffffffffffffffffffffffff168152602001908152602001600020604051806101000160405290816000820180546102dc90614b51565b80601f016020809104026020016040519081016040528092919081815260200182805461030890614b51565b80156103555780601f1061032a57610100808354040283529160200191610355565b820191906000526020600020905b81548152906001019060200180831161033857829003601f168201915b505050505081526020016001820160009054906101000a900460ff1660ff1660ff1681526020016001820160019054906101000a900473ffffffffffffffffffffffffffffffffffffffff1673ffffffffffffffffffffffffffffffffffffffff1673ffffffffffffffffffffffffffffffffffffffff1681526020016002820180546103e190614b51565b80601f016020809104026020016040519081016040528092919081815260200182805461040d90614b51565b801561045a5780601f1061042f5761010080835404028352916020019161045a565b820191906000526020600020905b81548152906001019060200180831161043d57829003601f168201915b5050505050815260200160038201805461047390614b51565b80601f016020809104026020016040519081016040528092919081815260200182805461049f90614b51565b80156104ec5780601f106104c1576101008083540402835291602001916104ec565b820191906000526020600020905b8154815290600101906020018083116104cf57829003601f168201915b5050505050815260200160048201805461050590614b51565b80601f016020809104026020016040519081016040528092919081815260200182805461053190614b51565b801561057e5780601f106105535761010080835404028352916020019161057e565b820191906000526020600020905b81548152906001019060200180831161056157829003601f168201915b50505050508152602001600582018054806020026020016040519081016040528092919081815260200182805480156105d657602002820191906000526020600020905b8154815260200190600101908083116105c2575b505050505081526020016006820180548060200260200160405190810160405280929190818152602001828054801561066457602002820191906000526020600020905b8160009054906101000a900473ffffffffffffffffffffffffffffffffffffffff1673ffffffffffffffffffffffffffffffffffffffff168152602001906001019080831161061a575b5050505050815250509050600073ffffffffffffffffffffffffffffffffffffffff16816040015173ffffffffffffffffffffffffffffffffffffffff16116106ac57600080fd5b8260008060008373ffffffffffffffffffffffffffffffffffffffff1673ffffffffffffffffffffffffffffffffffffffff16815260200190815260200160002060405180606001604052908160008201805461070890614b51565b80601f016020809104026020016040519081016040528092919081815260200182805461073490614b51565b80156107815780601f1061075657610100808354040283529160200191610781565b820191906000526020600020905b81548152906001019060200180831161076457829003601f168201915b505050505081526020016001820160009054906101000a900473ffffffffffffffffffffffffffffffffffffffff1673ffffffffffffffffffffffffffffffffffffffff1673ffffffffffffffffffffffffffffffffffffffff1681526020016002820180548060200260200160405190810160405280929190818152602001828054801561086557602002820191906000526020600020905b8160009054906101000a900473ffffffffffffffffffffffffffffffffffffffff1673ffffffffffffffffffffffffffffffffffffffff168152602001906001019080831161081b575b5050505050815250509050600073ffffffffffffffffffffffffffffffffffffffff16816020015173ffffffffffffffffffffffffffffffffffffffff16116108ad57600080fd5b6000600260003373ffffffffffffffffffffffffffffffffffffffff1673ffffffffffffffffffffffffffffffffffffffff168152602001908152602001600020905060008060008873ffffffffffffffffffffffffffffffffffffffff1673ffffffffffffffffffffffffffffffffffffffff16815260200190815260200160002090506001600360003373ffffffffffffffffffffffffffffffffffffffff1673ffffffffffffffffffffffffffffffffffffffff16815260200190815260200160002060008973ffffffffffffffffffffffffffffffffffffffff1673ffffffffffffffffffffffffffffffffffffffff16815260200190815260200160002054106109bb57600080fd5b81600601879080600181540180825580915050600190039060005260206000200160009091909190916101000a81548173ffffffffffffffffffffffffffffffffffffffff021916908373ffffffffffffffffffffffffffffffffffffffff1602179055506000826006018054905090508060088190555080600360003373ffffffffffffffffffffffffffffffffffffffff1673ffffffffffffffffffffffffffffffffffffffff16815260200190815260200160002060008a73ffffffffffffffffffffffffffffffffffffffff1673ffffffffffffffffffffffffffffffffffffffff1681526020019081526020016000208190555081600201339080600181540180825580915050600190039060005260206000200160009091909190916101000a81548173ffffffffffffffffffffffffffffffffffffffff021916908373ffffffffffffffffffffffffffffffffffffffff1602179055505050505050505050565b6060600660008373ffffffffffffffffffffffffffffffffffffffff1673ffffffffffffffffffffffffffffffffffffffff168152602001908152602001600020805480602002602001604051908101604052809291908181526020016000905b82821015610ce45783829060005260206000209060030201604051806060016040529081600082018054610bb790614b51565b80601f0160208091040260200160405190810160405280929190818152602001828054610be390614b51565b8015610c305780601f10610c0557610100808354040283529160200191610c30565b820191906000526020600020905b815481529060010190602001808311610c1357829003601f168201915b50505050508152602001600182018054610c4990614b51565b80601f0160208091040260200160405190810160405280929190818152602001828054610c7590614b51565b8015610cc25780601f10610c9757610100808354040283529160200191610cc2565b820191906000526020600020905b815481529060010190602001808311610ca557829003601f168201915b5050505050815260200160028201548152505081526020019060010190610b84565b505050509050919050565b6060600080606080336000600260008373ffffffffffffffffffffffffffffffffffffffff1673ffffffffffffffffffffffffffffffffffffffff16815260200190815260200160002060405180610100016040529081600082018054610d5590614b51565b80601f0160208091040260200160405190810160405280929190818152602001828054610d8190614b51565b8015610dce5780601f10610da357610100808354040283529160200191610dce565b820191906000526020600020905b815481529060010190602001808311610db157829003601f168201915b505050505081526020016001820160009054906101000a900460ff1660ff1660ff1681526020016001820160019054906101000a900473ffffffffffffffffffffffffffffffffffffffff1673ffffffffffffffffffffffffffffffffffffffff1673ffffffffffffffffffffffffffffffffffffffff168152602001600282018054610e5a90614b51565b80601f0160208091040260200160405190810160405280929190818152602001828054610e8690614b51565b8015610ed35780601f10610ea857610100808354040283529160200191610ed3565b820191906000526020600020905b815481529060010190602001808311610eb657829003601f168201915b50505050508152602001600382018054610eec90614b51565b80601f0160208091040260200160405190810160405280929190818152602001828054610f1890614b51565b8015610f655780601f10610f3a57610100808354040283529160200191610f65565b820191906000526020600020905b815481529060010190602001808311610f4857829003601f168201915b50505050508152602001600482018054610f7e90614b51565b80601f0160208091040260200160405190810160405280929190818152602001828054610faa90614b51565b8015610ff75780601f10610fcc57610100808354040283529160200191610ff7565b820191906000526020600020905b815481529060010190602001808311610fda57829003601f168201915b505050505081526020016005820180548060200260200160405190810160405280929190818152602001828054801561104f57602002820191906000526020600020905b81548152602001906001019080831161103b575b50505050508152602001600682018054806020026020016040519081016040528092919081815260200182805480156110dd57602002820191906000526020600020905b8160009054906101000a900473ffffffffffffffffffffffffffffffffffffffff1673ffffffffffffffffffffffffffffffffffffffff1681526020019060010190808311611093575b5050505050815250509050600073ffffffffffffffffffffffffffffffffffffffff16816040015173ffffffffffffffffffffffffffffffffffffffff161161112557600080fd5b6000600260003373ffffffffffffffffffffffffffffffffffffffff1673ffffffffffffffffffffffffffffffffffffffff1681526020019081526020016000206040518061010001604052908160008201805461118290614b51565b80601f01602080910402602001604051908101604052809291908181526020018280546111ae90614b51565b80156111fb5780601f106111d0576101008083540402835291602001916111fb565b820191906000526020600020905b8154815290600101906020018083116111de57829003601f168201915b505050505081526020016001820160009054906101000a900460ff1660ff1660ff1681526020016001820160019054906101000a900473ffffffffffffffffffffffffffffffffffffffff1673ffffffffffffffffffffffffffffffffffffffff1673ffffffffffffffffffffffffffffffffffffffff16815260200160028201805461128790614b51565b80601f01602080910402602001604051908101604052809291908181526020018280546112b390614b51565b80156113005780601f106112d557610100808354040283529160200191611300565b820191906000526020600020905b8154815290600101906020018083116112e357829003601f168201915b5050505050815260200160038201805461131990614b51565b80601f016020809104026020016040519081016040528092919081815260200182805461134590614b51565b80156113925780601f1061136757610100808354040283529160200191611392565b820191906000526020600020905b81548152906001019060200180831161137557829003601f168201915b505050505081526020016004820180546113ab90614b51565b80601f01602080910402602001604051908101604052809291908181526020018280546113d790614b51565b80156114245780601f106113f957610100808354040283529160200191611424565b820191906000526020600020905b81548152906001019060200180831161140757829003601f168201915b505050505081526020016005820180548060200260200160405190810160405280929190818152602001828054801561147c57602002820191906000526020600020905b815481526020019060010190808311611468575b505050505081526020016006820180548060200260200160405190810160405280929190818152602001828054801561150a57602002820191906000526020600020905b8160009054906101000a900473ffffffffffffffffffffffffffffffffffffffff1673ffffffffffffffffffffffffffffffffffffffff16815260200190600101908083116114c0575b50505050508152505090508060000151816040015182602001518360c001518460e00151975097509750975097505050509091929394565b61154a613ff5565b81600060056000838152602001908152602001600020600001805461156e90614b51565b80601f016020809104026020016040519081016040528092919081815260200182805461159a90614b51565b80156115e75780601f106115bc576101008083540402835291602001916115e7565b820191906000526020600020905b8154815290600101906020018083116115ca57829003601f168201915b5050505050905060008151116115fc57600080fd5b6005600085815260200190815260200160002060405180606001604052908160008201805461162a90614b51565b80601f016020809104026020016040519081016040528092919081815260200182805461165690614b51565b80156116a35780601f10611678576101008083540402835291602001916116a3565b820191906000526020600020905b81548152906001019060200180831161168657829003601f168201915b505050505081526020016001820180546116bc90614b51565b80601f01602080910402602001604051908101604052809291908181526020018280546116e890614b51565b80156117355780601f1061170a57610100808354040283529160200191611735565b820191906000526020600020905b81548152906001019060200180831161171857829003601f168201915b5050505050815260200160028201548152505092505050919050565b6009602052816000526040600020818154811061176d57600080fd5b9060005260206000209060030201600091509150508060000160009054906101000a900473ffffffffffffffffffffffffffffffffffffffff16908060010160009054906101000a900473ffffffffffffffffffffffffffffffffffffffff16908060020180546117dd90614b51565b80601f016020809104026020016040519081016040528092919081815260200182805461180990614b51565b80156118565780601f1061182b57610100808354040283529160200191611856565b820191906000526020600020905b81548152906001019060200180831161183957829003601f168201915b5050505050905083565b6000600260003373ffffffffffffffffffffffffffffffffffffffff1673ffffffffffffffffffffffffffffffffffffffff168152602001908152602001600020604051806101000160405290816000820180546118bd90614b51565b80601f01602080910402602001604051908101604052809291908181526020018280546118e990614b51565b80156119365780601f1061190b57610100808354040283529160200191611936565b820191906000526020600020905b81548152906001019060200180831161191957829003601f168201915b505050505081526020016001820160009054906101000a900460ff1660ff1660ff1681526020016001820160019054906101000a900473ffffffffffffffffffffffffffffffffffffffff1673ffffffffffffffffffffffffffffffffffffffff1673ffffffffffffffffffffffffffffffffffffffff1681526020016002820180546119c290614b51565b80601f01602080910402602001604051908101604052809291908181526020018280546119ee90614b51565b8015611a3b5780601f10611a1057610100808354040283529160200191611a3b565b820191906000526020600020905b815481529060010190602001808311611a1e57829003601f168201915b50505050508152602001600382018054611a5490614b51565b80601f0160208091040260200160405190810160405280929190818152602001828054611a8090614b51565b8015611acd5780601f10611aa257610100808354040283529160200191611acd565b820191906000526020600020905b815481529060010190602001808311611ab057829003601f168201915b50505050508152602001600482018054611ae690614b51565b80601f0160208091040260200160405190810160405280929190818152602001828054611b1290614b51565b8015611b5f5780601f10611b3457610100808354040283529160200191611b5f565b820191906000526020600020905b815481529060010190602001808311611b4257829003601f168201915b5050505050815260200160058201805480602002602001604051908101604052809291908181526020018280548015611bb757602002820191906000526020600020905b815481526020019060010190808311611ba3575b5050505050815260200160068201805480602002602001604051908101604052809291908181526020018280548015611c4557602002820191906000526020600020905b8160009054906101000a900473ffffffffffffffffffffffffffffffffffffffff1673ffffffffffffffffffffffffffffffffffffffff1681526020019060010190808311611bfb575b50505050508152505090507fc5d2460186f7233c927e7db2dcc703c0e500b653ca82273b7bfad8045d85a47089604051602001611c8291906147ea565b604051602081830303815290604052805190602001201415611ca357600080fd5b60008860ff16118015611cb9575060648860ff16105b611cc257600080fd5b600073ffffffffffffffffffffffffffffffffffffffff16816040015173ffffffffffffffffffffffffffffffffffffffff161115611d0057600080fd5b6040518061010001604052808a81526020018960ff1681526020013373ffffffffffffffffffffffffffffffffffffffff16815260200188888080601f016020809104026020016040519081016040528093929190818152602001838380828437600081840152601f19601f82011690508083019250505050505050815260200186868080601f016020809104026020016040519081016040528093929190818152602001838380828437600081840152601f19601f82011690508083019250505050505050815260200184848080601f016020809104026020016040519081016040528093929190818152602001838380828437600081840152601f19601f820116905080830192505050505050508152602001600067ffffffffffffffff811115611e56577f4e487b7100000000000000000000000000000000000000000000000000000000600052604160045260246000fd5b604051908082528060200260200182016040528015611e845781602001602082028036833780820191505090505b508152602001600067ffffffffffffffff811115611ecb577f4e487b7100000000000000000000000000000000000000000000000000000000600052604160045260246000fd5b604051908082528060200260200182016040528015611ef95781602001602082028036833780820191505090505b50815250600260003373ffffffffffffffffffffffffffffffffffffffff1673ffffffffffffffffffffffffffffffffffffffff1681526020019081526020016000206000820151816000019080519060200190611f58929190614019565b5060208201518160010160006101000a81548160ff021916908360ff16021790555060408201518160010160016101000a81548173ffffffffffffffffffffffffffffffffffffffff021916908373ffffffffffffffffffffffffffffffffffffffff1602179055506060820151816002019080519060200190611fdd929190614019565b506080820151816003019080519060200190611ffa929190614019565b5060a0820151816004019080519060200190612017929190614019565b5060c082015181600501908051906020019061203492919061409f565b5060e08201518160060190805190602001906120519291906140ec565b50905050505050505050505050565b60008060003373ffffffffffffffffffffffffffffffffffffffff1673ffffffffffffffffffffffffffffffffffffffff1681526020019081526020016000206040518060600160405290816000820180546120bb90614b51565b80601f01602080910402602001604051908101604052809291908181526020018280546120e790614b51565b80156121345780601f1061210957610100808354040283529160200191612134565b820191906000526020600020905b81548152906001019060200180831161211757829003601f168201915b505050505081526020016001820160009054906101000a900473ffffffffffffffffffffffffffffffffffffffff1673ffffffffffffffffffffffffffffffffffffffff1673ffffffffffffffffffffffffffffffffffffffff1681526020016002820180548060200260200160405190810160405280929190818152602001828054801561221857602002820191906000526020600020905b8160009054906101000a900473ffffffffffffffffffffffffffffffffffffffff1673ffffffffffffffffffffffffffffffffffffffff16815260200190600101908083116121ce575b50505050508152505090507fc5d2460186f7233c927e7db2dcc703c0e500b653ca82273b7bfad8045d85a4708260405160200161225591906147ea565b60405160208183030381529060405280519060200120141561227657600080fd5b600073ffffffffffffffffffffffffffffffffffffffff16816020015173ffffffffffffffffffffffffffffffffffffffff1611156122b457600080fd5b60405180606001604052808381526020013373ffffffffffffffffffffffffffffffffffffffff168152602001600067ffffffffffffffff811115612322577f4e487b7100000000000000000000000000000000000000000000000000000000600052604160045260246000fd5b6040519080825280602002602001820160405280156123505781602001602082028036833780820191505090505b508152506000803373ffffffffffffffffffffffffffffffffffffffff1673ffffffffffffffffffffffffffffffffffffffff16815260200190815260200160002060008201518160000190805190602001906123ae929190614019565b5060208201518160010160006101000a81548173ffffffffffffffffffffffffffffffffffffffff021916908373ffffffffffffffffffffffffffffffffffffffff16021790555060408201518160020190805190602001906124129291906140ec565b509050505050565b600a602052816000526040600020818154811061243657600080fd5b9060005260206000209060030201600091509150508060000160009054906101000a900473ffffffffffffffffffffffffffffffffffffffff16908060010160009054906101000a900473ffffffffffffffffffffffffffffffffffffffff16908060020180546124a690614b51565b80601f01602080910402602001604051908101604052809291908181526020018280546124d290614b51565b801561251f5780601f106124f45761010080835404028352916020019161251f565b820191906000526020600020905b81548152906001019060200180831161250257829003601f168201915b5050505050905083565b336000600260008373ffffffffffffffffffffffffffffffffffffffff1673ffffffffffffffffffffffffffffffffffffffff1681526020019081526020016000206040518061010001604052908160008201805461258790614b51565b80601f01602080910402602001604051908101604052809291908181526020018280546125b390614b51565b80156126005780601f106125d557610100808354040283529160200191612600565b820191906000526020600020905b8154815290600101906020018083116125e357829003601f168201915b505050505081526020016001820160009054906101000a900460ff1660ff1660ff1681526020016001820160019054906101000a900473ffffffffffffffffffffffffffffffffffffffff1673ffffffffffffffffffffffffffffffffffffffff1673ffffffffffffffffffffffffffffffffffffffff16815260200160028201805461268c90614b51565b80601f01602080910402602001604051908101604052809291908181526020018280546126b890614b51565b80156127055780601f106126da57610100808354040283529160200191612705565b820191906000526020600020905b8154815290600101906020018083116126e857829003601f168201915b5050505050815260200160038201805461271e90614b51565b80601f016020809104026020016040519081016040528092919081815260200182805461274a90614b51565b80156127975780601f1061276c57610100808354040283529160200191612797565b820191906000526020600020905b81548152906001019060200180831161277a57829003601f168201915b505050505081526020016004820180546127b090614b51565b80601f01602080910402602001604051908101604052809291908181526020018280546127dc90614b51565b80156128295780601f106127fe57610100808354040283529160200191612829565b820191906000526020600020905b81548152906001019060200180831161280c57829003601f168201915b505050505081526020016005820180548060200260200160405190810160405280929190818152602001828054801561288157602002820191906000526020600020905b81548152602001906001019080831161286d575b505050505081526020016006820180548060200260200160405190810160405280929190818152602001828054801561290f57602002820191906000526020600020905b8160009054906101000a900473ffffffffffffffffffffffffffffffffffffffff1673ffffffffffffffffffffffffffffffffffffffff16815260200190600101908083116128c5575b5050505050815250509050600073ffffffffffffffffffffffffffffffffffffffff16816040015173ffffffffffffffffffffffffffffffffffffffff161161295757600080fd5b600660003373ffffffffffffffffffffffffffffffffffffffff1673ffffffffffffffffffffffffffffffffffffffff168152602001908152602001600020604051806060016040528087815260200186815260200185815250908060018154018082558091505060019003906000526020600020906003020160009091909190915060008201518160000190805190602001906129f6929190614019565b506020820151816001019080519060200190612a13929190614019565b506040820151816002015550505050505050565b6060600060603360008060008373ffffffffffffffffffffffffffffffffffffffff1673ffffffffffffffffffffffffffffffffffffffff168152602001908152602001600020604051806060016040529081600082018054612a8990614b51565b80601f0160208091040260200160405190810160405280929190818152602001828054612ab590614b51565b8015612b025780601f10612ad757610100808354040283529160200191612b02565b820191906000526020600020905b815481529060010190602001808311612ae557829003601f168201915b505050505081526020016001820160009054906101000a900473ffffffffffffffffffffffffffffffffffffffff1673ffffffffffffffffffffffffffffffffffffffff1673ffffffffffffffffffffffffffffffffffffffff16815260200160028201805480602002602001604051908101604052809291908181526020018280548015612be657602002820191906000526020600020905b8160009054906101000a900473ffffffffffffffffffffffffffffffffffffffff1673ffffffffffffffffffffffffffffffffffffffff1681526020019060010190808311612b9c575b5050505050815250509050600073ffffffffffffffffffffffffffffffffffffffff16816020015173ffffffffffffffffffffffffffffffffffffffff1611612c2e57600080fd5b60008060003373ffffffffffffffffffffffffffffffffffffffff1673ffffffffffffffffffffffffffffffffffffffff168152602001908152602001600020604051806060016040529081600082018054612c8990614b51565b80601f0160208091040260200160405190810160405280929190818152602001828054612cb590614b51565b8015612d025780601f10612cd757610100808354040283529160200191612d02565b820191906000526020600020905b815481529060010190602001808311612ce557829003601f168201915b505050505081526020016001820160009054906101000a900473ffffffffffffffffffffffffffffffffffffffff1673ffffffffffffffffffffffffffffffffffffffff1673ffffffffffffffffffffffffffffffffffffffff16815260200160028201805480602002602001604051908101604052809291908181526020018280548015612de657602002820191906000526020600020905b8160009054906101000a900473ffffffffffffffffffffffffffffffffffffffff1673ffffffffffffffffffffffffffffffffffffffff1681526020019060010190808311612d9c575b5050505050815250509050806000015181602001518260400151955095509550505050909192565b336000600260008373ffffffffffffffffffffffffffffffffffffffff1673ffffffffffffffffffffffffffffffffffffffff16815260200190815260200160002060405180610100016040529081600082018054612e6c90614b51565b80601f0160208091040260200160405190810160405280929190818152602001828054612e9890614b51565b8015612ee55780601f10612eba57610100808354040283529160200191612ee5565b820191906000526020600020905b815481529060010190602001808311612ec857829003601f168201915b505050505081526020016001820160009054906101000a900460ff1660ff1660ff1681526020016001820160019054906101000a900473ffffffffffffffffffffffffffffffffffffffff1673ffffffffffffffffffffffffffffffffffffffff1673ffffffffffffffffffffffffffffffffffffffff168152602001600282018054612f7190614b51565b80601f0160208091040260200160405190810160405280929190818152602001828054612f9d90614b51565b8015612fea5780601f10612fbf57610100808354040283529160200191612fea565b820191906000526020600020905b815481529060010190602001808311612fcd57829003601f168201915b5050505050815260200160038201805461300390614b51565b80601f016020809104026020016040519081016040528092919081815260200182805461302f90614b51565b801561307c5780601f106130515761010080835404028352916020019161307c565b820191906000526020600020905b81548152906001019060200180831161305f57829003601f168201915b5050505050815260200160048201805461309590614b51565b80601f01602080910402602001604051908101604052809291908181526020018280546130c190614b51565b801561310e5780601f106130e35761010080835404028352916020019161310e565b820191906000526020600020905b8154815290600101906020018083116130f157829003601f168201915b505050505081526020016005820180548060200260200160405190810160405280929190818152602001828054801561316657602002820191906000526020600020905b815481526020019060010190808311613152575b50505050508152602001600682018054806020026020016040519081016040528092919081815260200182805480156131f457602002820191906000526020600020905b8160009054906101000a900473ffffffffffffffffffffffffffffffffffffffff1673ffffffffffffffffffffffffffffffffffffffff16815260200190600101908083116131aa575b5050505050815250509050600073ffffffffffffffffffffffffffffffffffffffff16816040015173ffffffffffffffffffffffffffffffffffffffff161161323c57600080fd5b6000600260003373ffffffffffffffffffffffffffffffffffffffff1673ffffffffffffffffffffffffffffffffffffffff16815260200190815260200160002090506001600460003373ffffffffffffffffffffffffffffffffffffffff1673ffffffffffffffffffffffffffffffffffffffff168152602001908152602001600020600086815260200190815260200160002054106132dc57600080fd5b604051806060016040528087815260200186815260200185815250600560008681526020019081526020016000206000820151816000019080519060200190613326929190614019565b506020820151816001019080519060200190613343929190614019565b50604082015181600201559050508060050184908060018154018082558091505060019003906000526020600020016000909190919091505560008160050180549050905080600460003373ffffffffffffffffffffffffffffffffffffffff1673ffffffffffffffffffffffffffffffffffffffff16815260200190815260200160002060008781526020019081526020016000208190555050505050505050565b60606000806060846000600260008373ffffffffffffffffffffffffffffffffffffffff1673ffffffffffffffffffffffffffffffffffffffff1681526020019081526020016000206040518061010001604052908160008201805461344b90614b51565b80601f016020809104026020016040519081016040528092919081815260200182805461347790614b51565b80156134c45780601f10613499576101008083540402835291602001916134c4565b820191906000526020600020905b8154815290600101906020018083116134a757829003601f168201915b505050505081526020016001820160009054906101000a900460ff1660ff1660ff1681526020016001820160019054906101000a900473ffffffffffffffffffffffffffffffffffffffff1673ffffffffffffffffffffffffffffffffffffffff1673ffffffffffffffffffffffffffffffffffffffff16815260200160028201805461355090614b51565b80601f016020809104026020016040519081016040528092919081815260200182805461357c90614b51565b80156135c95780601f1061359e576101008083540402835291602001916135c9565b820191906000526020600020905b8154815290600101906020018083116135ac57829003601f168201915b505050505081526020016003820180546135e290614b51565b80601f016020809104026020016040519081016040528092919081815260200182805461360e90614b51565b801561365b5780601f106136305761010080835404028352916020019161365b565b820191906000526020600020905b81548152906001019060200180831161363e57829003601f168201915b5050505050815260200160048201805461367490614b51565b80601f01602080910402602001604051908101604052809291908181526020018280546136a090614b51565b80156136ed5780601f106136c2576101008083540402835291602001916136ed565b820191906000526020600020905b8154815290600101906020018083116136d057829003601f168201915b505050505081526020016005820180548060200260200160405190810160405280929190818152602001828054801561374557602002820191906000526020600020905b815481526020019060010190808311613731575b50505050508152602001600682018054806020026020016040519081016040528092919081815260200182805480156137d357602002820191906000526020600020905b8160009054906101000a900473ffffffffffffffffffffffffffffffffffffffff1673ffffffffffffffffffffffffffffffffffffffff1681526020019060010190808311613789575b5050505050815250509050600073ffffffffffffffffffffffffffffffffffffffff16816040015173ffffffffffffffffffffffffffffffffffffffff161161381b57600080fd5b3360008060008373ffffffffffffffffffffffffffffffffffffffff1673ffffffffffffffffffffffffffffffffffffffff16815260200190815260200160002060405180606001604052908160008201805461387790614b51565b80601f01602080910402602001604051908101604052809291908181526020018280546138a390614b51565b80156138f05780601f106138c5576101008083540402835291602001916138f0565b820191906000526020600020905b8154815290600101906020018083116138d357829003601f168201915b505050505081526020016001820160009054906101000a900473ffffffffffffffffffffffffffffffffffffffff1673ffffffffffffffffffffffffffffffffffffffff1673ffffffffffffffffffffffffffffffffffffffff168152602001600282018054806020026020016040519081016040528092919081815260200182805480156139d457602002820191906000526020600020905b8160009054906101000a900473ffffffffffffffffffffffffffffffffffffffff1673ffffffffffffffffffffffffffffffffffffffff168152602001906001019080831161398a575b5050505050815250509050600073ffffffffffffffffffffffffffffffffffffffff16816020015173ffffffffffffffffffffffffffffffffffffffff1611613a1c57600080fd5b6000600260008b73ffffffffffffffffffffffffffffffffffffffff1673ffffffffffffffffffffffffffffffffffffffff16815260200190815260200160002060405180610100016040529081600082018054613a7990614b51565b80601f0160208091040260200160405190810160405280929190818152602001828054613aa590614b51565b8015613af25780601f10613ac757610100808354040283529160200191613af2565b820191906000526020600020905b815481529060010190602001808311613ad557829003601f168201915b505050505081526020016001820160009054906101000a900460ff1660ff1660ff1681526020016001820160019054906101000a900473ffffffffffffffffffffffffffffffffffffffff1673ffffffffffffffffffffffffffffffffffffffff1673ffffffffffffffffffffffffffffffffffffffff168152602001600282018054613b7e90614b51565b80601f0160208091040260200160405190810160405280929190818152602001828054613baa90614b51565b8015613bf75780601f10613bcc57610100808354040283529160200191613bf7565b820191906000526020600020905b815481529060010190602001808311613bda57829003601f168201915b50505050508152602001600382018054613c1090614b51565b80601f0160208091040260200160405190810160405280929190818152602001828054613c3c90614b51565b8015613c895780601f10613c5e57610100808354040283529160200191613c89565b820191906000526020600020905b815481529060010190602001808311613c6c57829003601f168201915b50505050508152602001600482018054613ca290614b51565b80601f0160208091040260200160405190810160405280929190818152602001828054613cce90614b51565b8015613d1b5780601f10613cf057610100808354040283529160200191613d1b565b820191906000526020600020905b815481529060010190602001808311613cfe57829003601f168201915b5050505050815260200160058201805480602002602001604051908101604052809291908181526020018280548015613d7357602002820191906000526020600020905b815481526020019060010190808311613d5f575b5050505050815260200160068201805480602002602001604051908101604052809291908181526020018280548015613e0157602002820191906000526020600020905b8160009054906101000a900473ffffffffffffffffffffffffffffffffffffffff1673ffffffffffffffffffffffffffffffffffffffff1681526020019060010190808311613db7575b5050505050815250509050806000015181602001518260400151600660008e73ffffffffffffffffffffffffffffffffffffffff1673ffffffffffffffffffffffffffffffffffffffff16815260200190815260200160002080805480602002602001604051908101604052809291908181526020016000905b82821015613fdb5783829060005260206000209060030201604051806060016040529081600082018054613eae90614b51565b80601f0160208091040260200160405190810160405280929190818152602001828054613eda90614b51565b8015613f275780601f10613efc57610100808354040283529160200191613f27565b820191906000526020600020905b815481529060010190602001808311613f0a57829003601f168201915b50505050508152602001600182018054613f4090614b51565b80601f0160208091040260200160405190810160405280929190818152602001828054613f6c90614b51565b8015613fb95780601f10613f8e57610100808354040283529160200191613fb9565b820191906000526020600020905b815481529060010190602001808311613f9c57829003601f168201915b5050505050815260200160028201548152505081526020019060010190613e7b565b505050509050985098509850985050505050509193509193565b60405180606001604052806060815260200160608152602001600080191681525090565b82805461402590614b51565b90600052602060002090601f016020900481019282614047576000855561408e565b82601f1061406057805160ff191683800117855561408e565b8280016001018555821561408e579182015b8281111561408d578251825591602001919060010190614072565b5b50905061409b9190614176565b5090565b8280548282559060005260206000209081019282156140db579160200282015b828111156140da5782518255916020019190600101906140bf565b5b5090506140e89190614193565b5090565b828054828255906000526020600020908101928215614165579160200282015b828111156141645782518260006101000a81548173ffffffffffffffffffffffffffffffffffffffff021916908373ffffffffffffffffffffffffffffffffffffffff1602179055509160200191906001019061410c565b5b5090506141729190614176565b5090565b5b8082111561418f576000816000905550600101614177565b5090565b5b808211156141ac576000816000905550600101614194565b5090565b60006141c36141be846149a8565b614983565b9050828152602081018484840111156141db57600080fd5b6141e6848285614b0f565b509392505050565b6000813590506141fd81614c23565b92915050565b60008135905061421281614c3a565b92915050565b60008083601f84011261422a57600080fd5b8235905067ffffffffffffffff81111561424357600080fd5b60208301915083600182028301111561425b57600080fd5b9250929050565b600082601f83011261427357600080fd5b81356142838482602086016141b0565b91505092915050565b60008135905061429b81614c51565b92915050565b6000813590506142b081614c68565b92915050565b6000602082840312156142c857600080fd5b60006142d6848285016141ee565b91505092915050565b600080604083850312156142f257600080fd5b6000614300858286016141ee565b92505060206143118582860161428c565b9150509250929050565b60006020828403121561432d57600080fd5b600061433b84828501614203565b91505092915050565b60006020828403121561435657600080fd5b600082013567ffffffffffffffff81111561437057600080fd5b61437c84828501614262565b91505092915050565b60008060006060848603121561439a57600080fd5b600084013567ffffffffffffffff8111156143b457600080fd5b6143c086828701614262565b935050602084013567ffffffffffffffff8111156143dd57600080fd5b6143e986828701614262565b92505060406143fa86828701614203565b9150509250925092565b60008060008060008060008060a0898b03121561442057600080fd5b600089013567ffffffffffffffff81111561443a57600080fd5b6144468b828c01614262565b98505060206144578b828c016142a1565b975050604089013567ffffffffffffffff81111561447457600080fd5b6144808b828c01614218565b9650965050606089013567ffffffffffffffff81111561449f57600080fd5b6144ab8b828c01614218565b9450945050608089013567ffffffffffffffff8111156144ca57600080fd5b6144d68b828c01614218565b92509250509295985092959890939650565b60006144f4838361452c565b60208301905092915050565b600061450c838361467b565b60208301905092915050565b6000614524838361472d565b905092915050565b61453581614abc565b82525050565b61454481614abc565b82525050565b600061455582614a09565b61455f8185614a5c565b935061456a836149d9565b8060005b8381101561459b57815161458288826144e8565b975061458d83614a35565b92505060018101905061456e565b5085935050505092915050565b60006145b382614a14565b6145bd8185614a6d565b93506145c8836149e9565b8060005b838110156145f95781516145e08882614500565b97506145eb83614a42565b9250506001810190506145cc565b5085935050505092915050565b600061461182614a1f565b61461b8185614a7e565b93508360208202850161462d856149f9565b8060005b85811015614669578484038952815161464a8582614518565b945061465583614a4f565b925060208a01995050600181019050614631565b50829750879550505050505092915050565b61468481614ace565b82525050565b600061469582614a2a565b61469f8185614a8f565b93506146af818560208601614b1e565b6146b881614c12565b840191505092915050565b60006146ce82614a2a565b6146d88185614aa0565b93506146e8818560208601614b1e565b6146f181614c12565b840191505092915050565b600061470782614a2a565b6147118185614ab1565b9350614721818560208601614b1e565b80840191505092915050565b6000606083016000830151848203600086015261474a828261468a565b91505060208301518482036020860152614764828261468a565b9150506040830151614779604086018261467b565b508091505092915050565b600060608301600083015184820360008601526147a1828261468a565b915050602083015184820360208601526147bb828261468a565b91505060408301516147d0604086018261467b565b508091505092915050565b6147e481614b02565b82525050565b60006147f682846146fc565b915081905092915050565b6000606082019050614816600083018661453b565b614823602083018561453b565b818103604083015261483581846146c3565b9050949350505050565b600060208201905081810360008301526148598184614606565b905092915050565b6000606082019050818103600083015261487b81866146c3565b905061488a602083018561453b565b818103604083015261489c818461454a565b9050949350505050565b600060a08201905081810360008301526148c081886146c3565b90506148cf602083018761453b565b6148dc60408301866147db565b81810360608301526148ee81856145a8565b90508181036080830152614902818461454a565b90509695505050505050565b6000608082019050818103600083015261492881876146c3565b905061493760208301866147db565b614944604083018561453b565b81810360608301526149568184614606565b905095945050505050565b6000602082019050818103600083015261497b8184614784565b905092915050565b600061498d61499e565b90506149998282614b83565b919050565b6000604051905090565b600067ffffffffffffffff8211156149c3576149c2614be3565b5b6149cc82614c12565b9050602081019050919050565b6000819050602082019050919050565b6000819050602082019050919050565b6000819050602082019050919050565b600081519050919050565b600081519050919050565b600081519050919050565b600081519050919050565b6000602082019050919050565b6000602082019050919050565b6000602082019050919050565b600082825260208201905092915050565b600082825260208201905092915050565b600082825260208201905092915050565b600082825260208201905092915050565b600082825260208201905092915050565b600081905092915050565b6000614ac782614ad8565b9050919050565b6000819050919050565b600073ffffffffffffffffffffffffffffffffffffffff82169050919050565b6000819050919050565b600060ff82169050919050565b82818337600083830152505050565b60005b83811015614b3c578082015181840152602081019050614b21565b83811115614b4b576000848401525b50505050565b60006002820490506001821680614b6957607f821691505b60208210811415614b7d57614b7c614bb4565b5b50919050565b614b8c82614c12565b810181811067ffffffffffffffff82111715614bab57614baa614be3565b5b80604052505050565b7f4e487b7100000000000000000000000000000000000000000000000000000000600052602260045260246000fd5b7f4e487b7100000000000000000000000000000000000000000000000000000000600052604160045260246000fd5b6000601f19601f8301169050919050565b614c2c81614abc565b8114614c3757600080fd5b50565b614c4381614ace565b8114614c4e57600080fd5b50565b614c5a81614af8565b8114614c6557600080fd5b50565b614c7181614b02565b8114614c7c57600080fd5b5056fea26469706673582212200f32894a802a5587371c5236c1c7b4b24fac140e141dd4845d085ca2b53106a864736f6c63430008040033",
    "linkReferences": {},
    "deployedLinkReferences": {}
}