{
  "_format": "hh-sol-artifact-1",
  "contractName": "healthCare",
  "sourceName": "contracts/healthcare.sol",
  "abi": [
    {
      "inputs": [],
      "stateMutability": "nonpayable",
      "type": "constructor"
    },
    {
      "inputs": [
        {
          "internalType": "string",
          "name": "_file_name",
          "type": "string"
        },
        {
          "internalType": "string",
          "name": "_file_type",
          "type": "string"
        },
        {
          "internalType": "string",
          "name": "_fileHash",
          "type": "string"
        }
      ],
      "name": "addFile",
      "outputs": [],
      "stateMutability": "nonpayable",
      "type": "function"
    },
    {
      "inputs": [
        {
          "internalType": "string",
          "name": "_file_name",
          "type": "string"
        },
        {
          "internalType": "string",
          "name": "_file_type",
          "type": "string"
        },
        {
          "internalType": "string",
          "name": "_file_hash",
          "type": "string"
        }
      ],
      "name": "addUserFiles",
      "outputs": [],
      "stateMutability": "nonpayable",
      "type": "function"
    },
    {
      "inputs": [
        {
          "internalType": "address",
          "name": "",
          "type": "address"
        },
        {
          "internalType": "uint256",
          "name": "",
          "type": "uint256"
        }
      ],
      "name": "doctorAppointments",
      "outputs": [
        {
          "internalType": "address",
          "name": "doctor_id",
          "type": "address"
        },
        {
          "internalType": "address",
          "name": "patient_id",
          "type": "address"
        },
        {
          "internalType": "string",
          "name": "appointment_details",
          "type": "string"
        }
      ],
      "stateMutability": "view",
      "type": "function"
    },
    {
      "inputs": [],
      "name": "getDoctorInfo",
      "outputs": [
        {
          "internalType": "string",
          "name": "",
          "type": "string"
        },
        {
          "internalType": "address",
          "name": "",
          "type": "address"
        },
        {
          "internalType": "address[]",
          "name": "",
          "type": "address[]"
        }
      ],
      "stateMutability": "view",
      "type": "function"
    },
    {
      "inputs": [
        {
          "internalType": "string",
          "name": "fileHashId",
          "type": "string"
        }
      ],
      "name": "getFileInfo",
      "outputs": [
        {
          "components": [
            {
              "internalType": "string",
              "name": "file_name",
              "type": "string"
            },
            {
              "internalType": "string",
              "name": "file_type",
              "type": "string"
            },
            {
              "internalType": "string",
              "name": "file_hash",
              "type": "string"
            }
          ],
          "internalType": "struct File.files",
          "name": "",
          "type": "tuple"
        }
      ],
      "stateMutability": "view",
      "type": "function"
    },
    {
      "inputs": [],
      "name": "getPatientInfo",
      "outputs": [
        {
          "internalType": "string",
          "name": "",
          "type": "string"
        },
        {
          "internalType": "address",
          "name": "",
          "type": "address"
        },
        {
          "internalType": "uint8",
          "name": "",
          "type": "uint8"
        },
        {
          "internalType": "string[]",
          "name": "",
          "type": "string[]"
        },
        {
          "internalType": "address[]",
          "name": "",
          "type": "address[]"
        }
      ],
      "stateMutability": "view",
      "type": "function"
    },
    {
      "inputs": [
        {
          "internalType": "address",
          "name": "pat",
          "type": "address"
        }
      ],
      "name": "getPatientInfoForDoctor",
      "outputs": [
        {
          "internalType": "string",
          "name": "",
          "type": "string"
        },
        {
          "internalType": "uint8",
          "name": "",
          "type": "uint8"
        },
        {
          "internalType": "address",
          "name": "",
          "type": "address"
        },
        {
          "internalType": "string[]",
          "name": "",
          "type": "string[]"
        }
      ],
      "stateMutability": "view",
      "type": "function"
    },
    {
      "inputs": [
        {
          "internalType": "address",
          "name": "sender",
          "type": "address"
        }
      ],
      "name": "getUserFiles",
      "outputs": [
        {
          "components": [
            {
              "internalType": "string",
              "name": "file_name",
              "type": "string"
            },
            {
              "internalType": "string",
              "name": "file_type",
              "type": "string"
            },
            {
              "internalType": "string",
              "name": "file_hash",
              "type": "string"
            }
          ],
          "internalType": "struct File.files[]",
          "name": "",
          "type": "tuple[]"
        }
      ],
      "stateMutability": "view",
      "type": "function"
    },
    {
      "inputs": [
        {
          "internalType": "address",
          "name": "doctor_id",
          "type": "address"
        }
      ],
      "name": "grantAccessToDoctor",
      "outputs": [],
      "stateMutability": "nonpayable",
      "type": "function"
    },
    {
      "inputs": [
        {
          "internalType": "address",
          "name": "",
          "type": "address"
        },
        {
          "internalType": "uint256",
          "name": "",
          "type": "uint256"
        }
      ],
      "name": "patientAppointments",
      "outputs": [
        {
          "internalType": "address",
          "name": "doctor_id",
          "type": "address"
        },
        {
          "internalType": "address",
          "name": "patient_id",
          "type": "address"
        },
        {
          "internalType": "string",
          "name": "appointment_details",
          "type": "string"
        }
      ],
      "stateMutability": "view",
      "type": "function"
    },
    {
      "inputs": [
        {
          "internalType": "string",
          "name": "_name",
          "type": "string"
        }
      ],
      "name": "signupDoctor",
      "outputs": [],
      "stateMutability": "nonpayable",
      "type": "function"
    },
    {
      "inputs": [
        {
          "internalType": "string",
          "name": "_name",
          "type": "string"
        },
        {
          "internalType": "uint8",
          "name": "_age",
          "type": "uint8"
        },
        {
          "internalType": "string",
          "name": "_residence_address",
          "type": "string"
        },
        {
          "internalType": "string",
          "name": "_contact_number",
          "type": "string"
        },
        {
          "internalType": "string",
          "name": "_email_id",
          "type": "string"
        }
      ],
      "name": "signupPatient",
      "outputs": [],
      "stateMutability": "nonpayable",
      "type": "function"
    }
  ],
  "bytecode": "0x608060405234801561001057600080fd5b5033600760006101000a81548173ffffffffffffffffffffffffffffffffffffffff021916908373ffffffffffffffffffffffffffffffffffffffff1602179055506150a3806100616000396000f3fe608060405234801561001057600080fd5b50600436106100b45760003560e01c806361ec9edb1161007157806361ec9edb146101a55780636459d52f146101c15780636a85de14146101dd578063b380f5c61461020f578063d45a56851461022f578063fe59cc1a1461024b576100b4565b80630cc9c17b146100b95780631c8e251c146100e95780631fc37922146101055780632ae48e4014610135578063326df6641461015157806357cd46f514610173575b600080fd5b6100d360048036038101906100ce9190614729565b61027e565b6040516100e09190614d70565b60405180910390f35b61010360048036038101906100fe91906146c4565b61052b565b005b61011f600480360381019061011a91906146c4565b610e51565b60405161012c9190614c4e565b60405180910390f35b61014f600480360381019061014a919061476a565b6110a5565b005b610159611637565b60405161016a959493929190614cb5565b60405180910390f35b61018d600480360381019061018891906146ed565b611f8c565b60405161019c93929190614c10565b60405180910390f35b6101bf60048036038101906101ba9190614801565b61209b565b005b6101db60048036038101906101d69190614729565b612921565b005b6101f760048036038101906101f291906146ed565b612cdb565b60405161020693929190614c10565b60405180910390f35b610217612dea565b60405161022693929190614c70565b60405180910390f35b6102496004803603810190610244919061476a565b6131d1565b005b610265600480360381019061026091906146c4565b613871565b6040516102759493929190614d1d565b60405180910390f35b6102866143c1565b8160006005826040516102999190614bf9565b908152602001604051809103902060000180546102b590614f56565b80601f01602080910402602001604051908101604052809291908181526020018280546102e190614f56565b801561032e5780601f106103035761010080835404028352916020019161032e565b820191906000526020600020905b81548152906001019060200180831161031157829003601f168201915b50505050509050600081511161034357600080fd5b6005846040516103539190614bf9565b908152602001604051809103902060405180606001604052908160008201805461037c90614f56565b80601f01602080910402602001604051908101604052809291908181526020018280546103a890614f56565b80156103f55780601f106103ca576101008083540402835291602001916103f5565b820191906000526020600020905b8154815290600101906020018083116103d857829003601f168201915b5050505050815260200160018201805461040e90614f56565b80601f016020809104026020016040519081016040528092919081815260200182805461043a90614f56565b80156104875780601f1061045c57610100808354040283529160200191610487565b820191906000526020600020905b81548152906001019060200180831161046a57829003601f168201915b505050505081526020016002820180546104a090614f56565b80601f01602080910402602001604051908101604052809291908181526020018280546104cc90614f56565b80156105195780601f106104ee57610100808354040283529160200191610519565b820191906000526020600020905b8154815290600101906020018083116104fc57829003601f168201915b50505050508152505092505050919050565b336000600260008373ffffffffffffffffffffffffffffffffffffffff1673ffffffffffffffffffffffffffffffffffffffff1681526020019081526020016000206040518061010001604052908160008201805461058990614f56565b80601f01602080910402602001604051908101604052809291908181526020018280546105b590614f56565b80156106025780601f106105d757610100808354040283529160200191610602565b820191906000526020600020905b8154815290600101906020018083116105e557829003601f168201915b505050505081526020016001820160009054906101000a900460ff1660ff1660ff1681526020016001820160019054906101000a900473ffffffffffffffffffffffffffffffffffffffff1673ffffffffffffffffffffffffffffffffffffffff1673ffffffffffffffffffffffffffffffffffffffff16815260200160028201805461068e90614f56565b80601f01602080910402602001604051908101604052809291908181526020018280546106ba90614f56565b80156107075780601f106106dc57610100808354040283529160200191610707565b820191906000526020600020905b8154815290600101906020018083116106ea57829003601f168201915b5050505050815260200160038201805461072090614f56565b80601f016020809104026020016040519081016040528092919081815260200182805461074c90614f56565b80156107995780601f1061076e57610100808354040283529160200191610799565b820191906000526020600020905b81548152906001019060200180831161077c57829003601f168201915b505050505081526020016004820180546107b290614f56565b80601f01602080910402602001604051908101604052809291908181526020018280546107de90614f56565b801561082b5780601f106108005761010080835404028352916020019161082b565b820191906000526020600020905b81548152906001019060200180831161080e57829003601f168201915b5050505050815260200160058201805480602002602001604051908101604052809291908181526020016000905b8282101561090557838290600052602060002001805461087890614f56565b80601f01602080910402602001604051908101604052809291908181526020018280546108a490614f56565b80156108f15780601f106108c6576101008083540402835291602001916108f1565b820191906000526020600020905b8154815290600101906020018083116108d457829003601f168201915b505050505081526020019060010190610859565b5050505081526020016006820180548060200260200160405190810160405280929190818152602001828054801561099257602002820191906000526020600020905b8160009054906101000a900473ffffffffffffffffffffffffffffffffffffffff1673ffffffffffffffffffffffffffffffffffffffff1681526020019060010190808311610948575b5050505050815250509050600073ffffffffffffffffffffffffffffffffffffffff16816040015173ffffffffffffffffffffffffffffffffffffffff16116109da57600080fd5b8260008060008373ffffffffffffffffffffffffffffffffffffffff1673ffffffffffffffffffffffffffffffffffffffff168152602001908152602001600020604051806060016040529081600082018054610a3690614f56565b80601f0160208091040260200160405190810160405280929190818152602001828054610a6290614f56565b8015610aaf5780601f10610a8457610100808354040283529160200191610aaf565b820191906000526020600020905b815481529060010190602001808311610a9257829003601f168201915b505050505081526020016001820160009054906101000a900473ffffffffffffffffffffffffffffffffffffffff1673ffffffffffffffffffffffffffffffffffffffff1673ffffffffffffffffffffffffffffffffffffffff16815260200160028201805480602002602001604051908101604052809291908181526020018280548015610b9357602002820191906000526020600020905b8160009054906101000a900473ffffffffffffffffffffffffffffffffffffffff1673ffffffffffffffffffffffffffffffffffffffff1681526020019060010190808311610b49575b5050505050815250509050600073ffffffffffffffffffffffffffffffffffffffff16816020015173ffffffffffffffffffffffffffffffffffffffff1611610bdb57600080fd5b6000600260003373ffffffffffffffffffffffffffffffffffffffff1673ffffffffffffffffffffffffffffffffffffffff168152602001908152602001600020905060008060008873ffffffffffffffffffffffffffffffffffffffff1673ffffffffffffffffffffffffffffffffffffffff16815260200190815260200160002090506001600360003373ffffffffffffffffffffffffffffffffffffffff1673ffffffffffffffffffffffffffffffffffffffff16815260200190815260200160002060008973ffffffffffffffffffffffffffffffffffffffff1673ffffffffffffffffffffffffffffffffffffffff1681526020019081526020016000205410610ce957600080fd5b81600601879080600181540180825580915050600190039060005260206000200160009091909190916101000a81548173ffffffffffffffffffffffffffffffffffffffff021916908373ffffffffffffffffffffffffffffffffffffffff1602179055506000826006018054905090508060088190555080600360003373ffffffffffffffffffffffffffffffffffffffff1673ffffffffffffffffffffffffffffffffffffffff16815260200190815260200160002060008a73ffffffffffffffffffffffffffffffffffffffff1673ffffffffffffffffffffffffffffffffffffffff1681526020019081526020016000208190555081600201339080600181540180825580915050600190039060005260206000200160009091909190916101000a81548173ffffffffffffffffffffffffffffffffffffffff021916908373ffffffffffffffffffffffffffffffffffffffff1602179055505050505050505050565b6060600660008373ffffffffffffffffffffffffffffffffffffffff1673ffffffffffffffffffffffffffffffffffffffff168152602001908152602001600020805480602002602001604051908101604052809291908181526020016000905b8282101561109a5783829060005260206000209060030201604051806060016040529081600082018054610ee590614f56565b80601f0160208091040260200160405190810160405280929190818152602001828054610f1190614f56565b8015610f5e5780601f10610f3357610100808354040283529160200191610f5e565b820191906000526020600020905b815481529060010190602001808311610f4157829003601f168201915b50505050508152602001600182018054610f7790614f56565b80601f0160208091040260200160405190810160405280929190818152602001828054610fa390614f56565b8015610ff05780601f10610fc557610100808354040283529160200191610ff0565b820191906000526020600020905b815481529060010190602001808311610fd357829003601f168201915b5050505050815260200160028201805461100990614f56565b80601f016020809104026020016040519081016040528092919081815260200182805461103590614f56565b80156110825780601f1061105757610100808354040283529160200191611082565b820191906000526020600020905b81548152906001019060200180831161106557829003601f168201915b50505050508152505081526020019060010190610eb2565b505050509050919050565b336000600260008373ffffffffffffffffffffffffffffffffffffffff1673ffffffffffffffffffffffffffffffffffffffff1681526020019081526020016000206040518061010001604052908160008201805461110390614f56565b80601f016020809104026020016040519081016040528092919081815260200182805461112f90614f56565b801561117c5780601f106111515761010080835404028352916020019161117c565b820191906000526020600020905b81548152906001019060200180831161115f57829003601f168201915b505050505081526020016001820160009054906101000a900460ff1660ff1660ff1681526020016001820160019054906101000a900473ffffffffffffffffffffffffffffffffffffffff1673ffffffffffffffffffffffffffffffffffffffff1673ffffffffffffffffffffffffffffffffffffffff16815260200160028201805461120890614f56565b80601f016020809104026020016040519081016040528092919081815260200182805461123490614f56565b80156112815780601f1061125657610100808354040283529160200191611281565b820191906000526020600020905b81548152906001019060200180831161126457829003601f168201915b5050505050815260200160038201805461129a90614f56565b80601f01602080910402602001604051908101604052809291908181526020018280546112c690614f56565b80156113135780601f106112e857610100808354040283529160200191611313565b820191906000526020600020905b8154815290600101906020018083116112f657829003601f168201915b5050505050815260200160048201805461132c90614f56565b80601f016020809104026020016040519081016040528092919081815260200182805461135890614f56565b80156113a55780601f1061137a576101008083540402835291602001916113a5565b820191906000526020600020905b81548152906001019060200180831161138857829003601f168201915b5050505050815260200160058201805480602002602001604051908101604052809291908181526020016000905b8282101561147f5783829060005260206000200180546113f290614f56565b80601f016020809104026020016040519081016040528092919081815260200182805461141e90614f56565b801561146b5780601f106114405761010080835404028352916020019161146b565b820191906000526020600020905b81548152906001019060200180831161144e57829003601f168201915b5050505050815260200190600101906113d3565b5050505081526020016006820180548060200260200160405190810160405280929190818152602001828054801561150c57602002820191906000526020600020905b8160009054906101000a900473ffffffffffffffffffffffffffffffffffffffff1673ffffffffffffffffffffffffffffffffffffffff16815260200190600101908083116114c2575b5050505050815250509050600073ffffffffffffffffffffffffffffffffffffffff16816040015173ffffffffffffffffffffffffffffffffffffffff161161155457600080fd5b600660003373ffffffffffffffffffffffffffffffffffffffff1673ffffffffffffffffffffffffffffffffffffffff168152602001908152602001600020604051806060016040528087815260200186815260200185815250908060018154018082558091505060019003906000526020600020906003020160009091909190915060008201518160000190805190602001906115f39291906143e2565b5060208201518160010190805190602001906116109291906143e2565b50604082015181600201908051906020019061162d9291906143e2565b5050505050505050565b6060600080606080336000600260008373ffffffffffffffffffffffffffffffffffffffff1673ffffffffffffffffffffffffffffffffffffffff1681526020019081526020016000206040518061010001604052908160008201805461169d90614f56565b80601f01602080910402602001604051908101604052809291908181526020018280546116c990614f56565b80156117165780601f106116eb57610100808354040283529160200191611716565b820191906000526020600020905b8154815290600101906020018083116116f957829003601f168201915b505050505081526020016001820160009054906101000a900460ff1660ff1660ff1681526020016001820160019054906101000a900473ffffffffffffffffffffffffffffffffffffffff1673ffffffffffffffffffffffffffffffffffffffff1673ffffffffffffffffffffffffffffffffffffffff1681526020016002820180546117a290614f56565b80601f01602080910402602001604051908101604052809291908181526020018280546117ce90614f56565b801561181b5780601f106117f05761010080835404028352916020019161181b565b820191906000526020600020905b8154815290600101906020018083116117fe57829003601f168201915b5050505050815260200160038201805461183490614f56565b80601f016020809104026020016040519081016040528092919081815260200182805461186090614f56565b80156118ad5780601f10611882576101008083540402835291602001916118ad565b820191906000526020600020905b81548152906001019060200180831161189057829003601f168201915b505050505081526020016004820180546118c690614f56565b80601f01602080910402602001604051908101604052809291908181526020018280546118f290614f56565b801561193f5780601f106119145761010080835404028352916020019161193f565b820191906000526020600020905b81548152906001019060200180831161192257829003601f168201915b5050505050815260200160058201805480602002602001604051908101604052809291908181526020016000905b82821015611a1957838290600052602060002001805461198c90614f56565b80601f01602080910402602001604051908101604052809291908181526020018280546119b890614f56565b8015611a055780601f106119da57610100808354040283529160200191611a05565b820191906000526020600020905b8154815290600101906020018083116119e857829003601f168201915b50505050508152602001906001019061196d565b50505050815260200160068201805480602002602001604051908101604052809291908181526020018280548015611aa657602002820191906000526020600020905b8160009054906101000a900473ffffffffffffffffffffffffffffffffffffffff1673ffffffffffffffffffffffffffffffffffffffff1681526020019060010190808311611a5c575b5050505050815250509050600073ffffffffffffffffffffffffffffffffffffffff16816040015173ffffffffffffffffffffffffffffffffffffffff1611611aee57600080fd5b6000600260003373ffffffffffffffffffffffffffffffffffffffff1673ffffffffffffffffffffffffffffffffffffffff16815260200190815260200160002060405180610100016040529081600082018054611b4b90614f56565b80601f0160208091040260200160405190810160405280929190818152602001828054611b7790614f56565b8015611bc45780601f10611b9957610100808354040283529160200191611bc4565b820191906000526020600020905b815481529060010190602001808311611ba757829003601f168201915b505050505081526020016001820160009054906101000a900460ff1660ff1660ff1681526020016001820160019054906101000a900473ffffffffffffffffffffffffffffffffffffffff1673ffffffffffffffffffffffffffffffffffffffff1673ffffffffffffffffffffffffffffffffffffffff168152602001600282018054611c5090614f56565b80601f0160208091040260200160405190810160405280929190818152602001828054611c7c90614f56565b8015611cc95780601f10611c9e57610100808354040283529160200191611cc9565b820191906000526020600020905b815481529060010190602001808311611cac57829003601f168201915b50505050508152602001600382018054611ce290614f56565b80601f0160208091040260200160405190810160405280929190818152602001828054611d0e90614f56565b8015611d5b5780601f10611d3057610100808354040283529160200191611d5b565b820191906000526020600020905b815481529060010190602001808311611d3e57829003601f168201915b50505050508152602001600482018054611d7490614f56565b80601f0160208091040260200160405190810160405280929190818152602001828054611da090614f56565b8015611ded5780601f10611dc257610100808354040283529160200191611ded565b820191906000526020600020905b815481529060010190602001808311611dd057829003601f168201915b5050505050815260200160058201805480602002602001604051908101604052809291908181526020016000905b82821015611ec7578382906000526020600020018054611e3a90614f56565b80601f0160208091040260200160405190810160405280929190818152602001828054611e6690614f56565b8015611eb35780601f10611e8857610100808354040283529160200191611eb3565b820191906000526020600020905b815481529060010190602001808311611e9657829003601f168201915b505050505081526020019060010190611e1b565b50505050815260200160068201805480602002602001604051908101604052809291908181526020018280548015611f5457602002820191906000526020600020905b8160009054906101000a900473ffffffffffffffffffffffffffffffffffffffff1673ffffffffffffffffffffffffffffffffffffffff1681526020019060010190808311611f0a575b50505050508152505090508060000151816040015182602001518360c001518460e00151975097509750975097505050509091929394565b60096020528160005260406000208181548110611fa857600080fd5b9060005260206000209060030201600091509150508060000160009054906101000a900473ffffffffffffffffffffffffffffffffffffffff16908060010160009054906101000a900473ffffffffffffffffffffffffffffffffffffffff169080600201805461201890614f56565b80601f016020809104026020016040519081016040528092919081815260200182805461204490614f56565b80156120915780601f1061206657610100808354040283529160200191612091565b820191906000526020600020905b81548152906001019060200180831161207457829003601f168201915b5050505050905083565b6000600260003373ffffffffffffffffffffffffffffffffffffffff1673ffffffffffffffffffffffffffffffffffffffff168152602001908152602001600020604051806101000160405290816000820180546120f890614f56565b80601f016020809104026020016040519081016040528092919081815260200182805461212490614f56565b80156121715780601f1061214657610100808354040283529160200191612171565b820191906000526020600020905b81548152906001019060200180831161215457829003601f168201915b505050505081526020016001820160009054906101000a900460ff1660ff1660ff1681526020016001820160019054906101000a900473ffffffffffffffffffffffffffffffffffffffff1673ffffffffffffffffffffffffffffffffffffffff1673ffffffffffffffffffffffffffffffffffffffff1681526020016002820180546121fd90614f56565b80601f016020809104026020016040519081016040528092919081815260200182805461222990614f56565b80156122765780601f1061224b57610100808354040283529160200191612276565b820191906000526020600020905b81548152906001019060200180831161225957829003601f168201915b5050505050815260200160038201805461228f90614f56565b80601f01602080910402602001604051908101604052809291908181526020018280546122bb90614f56565b80156123085780601f106122dd57610100808354040283529160200191612308565b820191906000526020600020905b8154815290600101906020018083116122eb57829003601f168201915b5050505050815260200160048201805461232190614f56565b80601f016020809104026020016040519081016040528092919081815260200182805461234d90614f56565b801561239a5780601f1061236f5761010080835404028352916020019161239a565b820191906000526020600020905b81548152906001019060200180831161237d57829003601f168201915b5050505050815260200160058201805480602002602001604051908101604052809291908181526020016000905b828210156124745783829060005260206000200180546123e790614f56565b80601f016020809104026020016040519081016040528092919081815260200182805461241390614f56565b80156124605780601f1061243557610100808354040283529160200191612460565b820191906000526020600020905b81548152906001019060200180831161244357829003601f168201915b5050505050815260200190600101906123c8565b5050505081526020016006820180548060200260200160405190810160405280929190818152602001828054801561250157602002820191906000526020600020905b8160009054906101000a900473ffffffffffffffffffffffffffffffffffffffff1673ffffffffffffffffffffffffffffffffffffffff16815260200190600101908083116124b7575b50505050508152505090507fc5d2460186f7233c927e7db2dcc703c0e500b653ca82273b7bfad8045d85a4708960405160200161253e9190614bf9565b60405160208183030381529060405280519060200120141561255f57600080fd5b60008860ff16118015612575575060648860ff16105b61257e57600080fd5b600073ffffffffffffffffffffffffffffffffffffffff16816040015173ffffffffffffffffffffffffffffffffffffffff1611156125bc57600080fd5b6040518061010001604052808a81526020018960ff1681526020013373ffffffffffffffffffffffffffffffffffffffff16815260200188888080601f016020809104026020016040519081016040528093929190818152602001838380828437600081840152601f19601f82011690508083019250505050505050815260200186868080601f016020809104026020016040519081016040528093929190818152602001838380828437600081840152601f19601f82011690508083019250505050505050815260200184848080601f016020809104026020016040519081016040528093929190818152602001838380828437600081840152601f19601f820116905080830192505050505050508152602001600067ffffffffffffffff811115612712577f4e487b7100000000000000000000000000000000000000000000000000000000600052604160045260246000fd5b60405190808252806020026020018201604052801561274557816020015b60608152602001906001900390816127305790505b508152602001600067ffffffffffffffff81111561278c577f4e487b7100000000000000000000000000000000000000000000000000000000600052604160045260246000fd5b6040519080825280602002602001820160405280156127ba5781602001602082028036833780820191505090505b50815250600260003373ffffffffffffffffffffffffffffffffffffffff1673ffffffffffffffffffffffffffffffffffffffff16815260200190815260200160002060008201518160000190805190602001906128199291906143e2565b5060208201518160010160006101000a81548160ff021916908360ff16021790555060408201518160010160016101000a81548173ffffffffffffffffffffffffffffffffffffffff021916908373ffffffffffffffffffffffffffffffffffffffff160217905550606082015181600201908051906020019061289e9291906143e2565b5060808201518160030190805190602001906128bb9291906143e2565b5060a08201518160040190805190602001906128d89291906143e2565b5060c08201518160050190805190602001906128f5929190614468565b5060e08201518160060190805190602001906129129291906144c8565b50905050505050505050505050565b60008060003373ffffffffffffffffffffffffffffffffffffffff1673ffffffffffffffffffffffffffffffffffffffff16815260200190815260200160002060405180606001604052908160008201805461297c90614f56565b80601f01602080910402602001604051908101604052809291908181526020018280546129a890614f56565b80156129f55780601f106129ca576101008083540402835291602001916129f5565b820191906000526020600020905b8154815290600101906020018083116129d857829003601f168201915b505050505081526020016001820160009054906101000a900473ffffffffffffffffffffffffffffffffffffffff1673ffffffffffffffffffffffffffffffffffffffff1673ffffffffffffffffffffffffffffffffffffffff16815260200160028201805480602002602001604051908101604052809291908181526020018280548015612ad957602002820191906000526020600020905b8160009054906101000a900473ffffffffffffffffffffffffffffffffffffffff1673ffffffffffffffffffffffffffffffffffffffff1681526020019060010190808311612a8f575b50505050508152505090507fc5d2460186f7233c927e7db2dcc703c0e500b653ca82273b7bfad8045d85a47082604051602001612b169190614bf9565b604051602081830303815290604052805190602001201415612b3757600080fd5b600073ffffffffffffffffffffffffffffffffffffffff16816020015173ffffffffffffffffffffffffffffffffffffffff161115612b7557600080fd5b60405180606001604052808381526020013373ffffffffffffffffffffffffffffffffffffffff168152602001600067ffffffffffffffff811115612be3577f4e487b7100000000000000000000000000000000000000000000000000000000600052604160045260246000fd5b604051908082528060200260200182016040528015612c115781602001602082028036833780820191505090505b508152506000803373ffffffffffffffffffffffffffffffffffffffff1673ffffffffffffffffffffffffffffffffffffffff1681526020019081526020016000206000820151816000019080519060200190612c6f9291906143e2565b5060208201518160010160006101000a81548173ffffffffffffffffffffffffffffffffffffffff021916908373ffffffffffffffffffffffffffffffffffffffff1602179055506040820151816002019080519060200190612cd39291906144c8565b509050505050565b600a6020528160005260406000208181548110612cf757600080fd5b9060005260206000209060030201600091509150508060000160009054906101000a900473ffffffffffffffffffffffffffffffffffffffff16908060010160009054906101000a900473ffffffffffffffffffffffffffffffffffffffff1690806002018054612d6790614f56565b80601f0160208091040260200160405190810160405280929190818152602001828054612d9390614f56565b8015612de05780601f10612db557610100808354040283529160200191612de0565b820191906000526020600020905b815481529060010190602001808311612dc357829003601f168201915b5050505050905083565b6060600060603360008060008373ffffffffffffffffffffffffffffffffffffffff1673ffffffffffffffffffffffffffffffffffffffff168152602001908152602001600020604051806060016040529081600082018054612e4c90614f56565b80601f0160208091040260200160405190810160405280929190818152602001828054612e7890614f56565b8015612ec55780601f10612e9a57610100808354040283529160200191612ec5565b820191906000526020600020905b815481529060010190602001808311612ea857829003601f168201915b505050505081526020016001820160009054906101000a900473ffffffffffffffffffffffffffffffffffffffff1673ffffffffffffffffffffffffffffffffffffffff1673ffffffffffffffffffffffffffffffffffffffff16815260200160028201805480602002602001604051908101604052809291908181526020018280548015612fa957602002820191906000526020600020905b8160009054906101000a900473ffffffffffffffffffffffffffffffffffffffff1673ffffffffffffffffffffffffffffffffffffffff1681526020019060010190808311612f5f575b5050505050815250509050600073ffffffffffffffffffffffffffffffffffffffff16816020015173ffffffffffffffffffffffffffffffffffffffff1611612ff157600080fd5b60008060003373ffffffffffffffffffffffffffffffffffffffff1673ffffffffffffffffffffffffffffffffffffffff16815260200190815260200160002060405180606001604052908160008201805461304c90614f56565b80601f016020809104026020016040519081016040528092919081815260200182805461307890614f56565b80156130c55780601f1061309a576101008083540402835291602001916130c5565b820191906000526020600020905b8154815290600101906020018083116130a857829003601f168201915b505050505081526020016001820160009054906101000a900473ffffffffffffffffffffffffffffffffffffffff1673ffffffffffffffffffffffffffffffffffffffff1673ffffffffffffffffffffffffffffffffffffffff168152602001600282018054806020026020016040519081016040528092919081815260200182805480156131a957602002820191906000526020600020905b8160009054906101000a900473ffffffffffffffffffffffffffffffffffffffff1673ffffffffffffffffffffffffffffffffffffffff168152602001906001019080831161315f575b5050505050815250509050806000015181602001518260400151955095509550505050909192565b336000600260008373ffffffffffffffffffffffffffffffffffffffff1673ffffffffffffffffffffffffffffffffffffffff1681526020019081526020016000206040518061010001604052908160008201805461322f90614f56565b80601f016020809104026020016040519081016040528092919081815260200182805461325b90614f56565b80156132a85780601f1061327d576101008083540402835291602001916132a8565b820191906000526020600020905b81548152906001019060200180831161328b57829003601f168201915b505050505081526020016001820160009054906101000a900460ff1660ff1660ff1681526020016001820160019054906101000a900473ffffffffffffffffffffffffffffffffffffffff1673ffffffffffffffffffffffffffffffffffffffff1673ffffffffffffffffffffffffffffffffffffffff16815260200160028201805461333490614f56565b80601f016020809104026020016040519081016040528092919081815260200182805461336090614f56565b80156133ad5780601f10613382576101008083540402835291602001916133ad565b820191906000526020600020905b81548152906001019060200180831161339057829003601f168201915b505050505081526020016003820180546133c690614f56565b80601f01602080910402602001604051908101604052809291908181526020018280546133f290614f56565b801561343f5780601f106134145761010080835404028352916020019161343f565b820191906000526020600020905b81548152906001019060200180831161342257829003601f168201915b5050505050815260200160048201805461345890614f56565b80601f016020809104026020016040519081016040528092919081815260200182805461348490614f56565b80156134d15780601f106134a6576101008083540402835291602001916134d1565b820191906000526020600020905b8154815290600101906020018083116134b457829003601f168201915b5050505050815260200160058201805480602002602001604051908101604052809291908181526020016000905b828210156135ab57838290600052602060002001805461351e90614f56565b80601f016020809104026020016040519081016040528092919081815260200182805461354a90614f56565b80156135975780601f1061356c57610100808354040283529160200191613597565b820191906000526020600020905b81548152906001019060200180831161357a57829003601f168201915b5050505050815260200190600101906134ff565b5050505081526020016006820180548060200260200160405190810160405280929190818152602001828054801561363857602002820191906000526020600020905b8160009054906101000a900473ffffffffffffffffffffffffffffffffffffffff1673ffffffffffffffffffffffffffffffffffffffff16815260200190600101908083116135ee575b5050505050815250509050600073ffffffffffffffffffffffffffffffffffffffff16816040015173ffffffffffffffffffffffffffffffffffffffff161161368057600080fd5b6000600260003373ffffffffffffffffffffffffffffffffffffffff1673ffffffffffffffffffffffffffffffffffffffff16815260200190815260200160002090506001600460003373ffffffffffffffffffffffffffffffffffffffff1673ffffffffffffffffffffffffffffffffffffffff168152602001908152602001600020856040516137129190614bf9565b9081526020016040518091039020541061372b57600080fd5b6040518060600160405280878152602001868152602001858152506005856040516137569190614bf9565b908152602001604051809103902060008201518160000190805190602001906137809291906143e2565b50602082015181600101908051906020019061379d9291906143e2565b5060408201518160020190805190602001906137ba9291906143e2565b5090505080600501849080600181540180825580915050600190039060005260206000200160009091909190915090805190602001906137fb9291906143e2565b5060008160050180549050905080600460003373ffffffffffffffffffffffffffffffffffffffff1673ffffffffffffffffffffffffffffffffffffffff168152602001908152602001600020866040516138569190614bf9565b90815260200160405180910390208190555050505050505050565b60606000806060846000600260008373ffffffffffffffffffffffffffffffffffffffff1673ffffffffffffffffffffffffffffffffffffffff168152602001908152602001600020604051806101000160405290816000820180546138d690614f56565b80601f016020809104026020016040519081016040528092919081815260200182805461390290614f56565b801561394f5780601f106139245761010080835404028352916020019161394f565b820191906000526020600020905b81548152906001019060200180831161393257829003601f168201915b505050505081526020016001820160009054906101000a900460ff1660ff1660ff1681526020016001820160019054906101000a900473ffffffffffffffffffffffffffffffffffffffff1673ffffffffffffffffffffffffffffffffffffffff1673ffffffffffffffffffffffffffffffffffffffff1681526020016002820180546139db90614f56565b80601f0160208091040260200160405190810160405280929190818152602001828054613a0790614f56565b8015613a545780601f10613a2957610100808354040283529160200191613a54565b820191906000526020600020905b815481529060010190602001808311613a3757829003601f168201915b50505050508152602001600382018054613a6d90614f56565b80601f0160208091040260200160405190810160405280929190818152602001828054613a9990614f56565b8015613ae65780601f10613abb57610100808354040283529160200191613ae6565b820191906000526020600020905b815481529060010190602001808311613ac957829003601f168201915b50505050508152602001600482018054613aff90614f56565b80601f0160208091040260200160405190810160405280929190818152602001828054613b2b90614f56565b8015613b785780601f10613b4d57610100808354040283529160200191613b78565b820191906000526020600020905b815481529060010190602001808311613b5b57829003601f168201915b5050505050815260200160058201805480602002602001604051908101604052809291908181526020016000905b82821015613c52578382906000526020600020018054613bc590614f56565b80601f0160208091040260200160405190810160405280929190818152602001828054613bf190614f56565b8015613c3e5780601f10613c1357610100808354040283529160200191613c3e565b820191906000526020600020905b815481529060010190602001808311613c2157829003601f168201915b505050505081526020019060010190613ba6565b50505050815260200160068201805480602002602001604051908101604052809291908181526020018280548015613cdf57602002820191906000526020600020905b8160009054906101000a900473ffffffffffffffffffffffffffffffffffffffff1673ffffffffffffffffffffffffffffffffffffffff1681526020019060010190808311613c95575b5050505050815250509050600073ffffffffffffffffffffffffffffffffffffffff16816040015173ffffffffffffffffffffffffffffffffffffffff1611613d2757600080fd5b3360008060008373ffffffffffffffffffffffffffffffffffffffff1673ffffffffffffffffffffffffffffffffffffffff168152602001908152602001600020604051806060016040529081600082018054613d8390614f56565b80601f0160208091040260200160405190810160405280929190818152602001828054613daf90614f56565b8015613dfc5780601f10613dd157610100808354040283529160200191613dfc565b820191906000526020600020905b815481529060010190602001808311613ddf57829003601f168201915b505050505081526020016001820160009054906101000a900473ffffffffffffffffffffffffffffffffffffffff1673ffffffffffffffffffffffffffffffffffffffff1673ffffffffffffffffffffffffffffffffffffffff16815260200160028201805480602002602001604051908101604052809291908181526020018280548015613ee057602002820191906000526020600020905b8160009054906101000a900473ffffffffffffffffffffffffffffffffffffffff1673ffffffffffffffffffffffffffffffffffffffff1681526020019060010190808311613e96575b5050505050815250509050600073ffffffffffffffffffffffffffffffffffffffff16816020015173ffffffffffffffffffffffffffffffffffffffff1611613f2857600080fd5b6000600260008b73ffffffffffffffffffffffffffffffffffffffff1673ffffffffffffffffffffffffffffffffffffffff16815260200190815260200160002060405180610100016040529081600082018054613f8590614f56565b80601f0160208091040260200160405190810160405280929190818152602001828054613fb190614f56565b8015613ffe5780601f10613fd357610100808354040283529160200191613ffe565b820191906000526020600020905b815481529060010190602001808311613fe157829003601f168201915b505050505081526020016001820160009054906101000a900460ff1660ff1660ff1681526020016001820160019054906101000a900473ffffffffffffffffffffffffffffffffffffffff1673ffffffffffffffffffffffffffffffffffffffff1673ffffffffffffffffffffffffffffffffffffffff16815260200160028201805461408a90614f56565b80601f01602080910402602001604051908101604052809291908181526020018280546140b690614f56565b80156141035780601f106140d857610100808354040283529160200191614103565b820191906000526020600020905b8154815290600101906020018083116140e657829003601f168201915b5050505050815260200160038201805461411c90614f56565b80601f016020809104026020016040519081016040528092919081815260200182805461414890614f56565b80156141955780601f1061416a57610100808354040283529160200191614195565b820191906000526020600020905b81548152906001019060200180831161417857829003601f168201915b505050505081526020016004820180546141ae90614f56565b80601f01602080910402602001604051908101604052809291908181526020018280546141da90614f56565b80156142275780601f106141fc57610100808354040283529160200191614227565b820191906000526020600020905b81548152906001019060200180831161420a57829003601f168201915b5050505050815260200160058201805480602002602001604051908101604052809291908181526020016000905b8282101561430157838290600052602060002001805461427490614f56565b80601f01602080910402602001604051908101604052809291908181526020018280546142a090614f56565b80156142ed5780601f106142c2576101008083540402835291602001916142ed565b820191906000526020600020905b8154815290600101906020018083116142d057829003601f168201915b505050505081526020019060010190614255565b5050505081526020016006820180548060200260200160405190810160405280929190818152602001828054801561438e57602002820191906000526020600020905b8160009054906101000a900473ffffffffffffffffffffffffffffffffffffffff1673ffffffffffffffffffffffffffffffffffffffff1681526020019060010190808311614344575b50505050508152505090508060000151816020015182604001518360c00151985098509850985050505050509193509193565b60405180606001604052806060815260200160608152602001606081525090565b8280546143ee90614f56565b90600052602060002090601f0160209004810192826144105760008555614457565b82601f1061442957805160ff1916838001178555614457565b82800160010185558215614457579182015b8281111561445657825182559160200191906001019061443b565b5b5090506144649190614552565b5090565b8280548282559060005260206000209081019282156144b7579160200282015b828111156144b65782518290805190602001906144a69291906143e2565b5091602001919060010190614488565b5b5090506144c4919061456f565b5090565b828054828255906000526020600020908101928215614541579160200282015b828111156145405782518260006101000a81548173ffffffffffffffffffffffffffffffffffffffff021916908373ffffffffffffffffffffffffffffffffffffffff160217905550916020019190600101906144e8565b5b50905061454e9190614552565b5090565b5b8082111561456b576000816000905550600101614553565b5090565b5b8082111561458f57600081816145869190614593565b50600101614570565b5090565b50805461459f90614f56565b6000825580601f106145b157506145d0565b601f0160209004906000526020600020908101906145cf9190614552565b5b50565b60006145e66145e184614db7565b614d92565b9050828152602081018484840111156145fe57600080fd5b614609848285614f14565b509392505050565b60008135905061462081615028565b92915050565b60008083601f84011261463857600080fd5b8235905067ffffffffffffffff81111561465157600080fd5b60208301915083600182028301111561466957600080fd5b9250929050565b600082601f83011261468157600080fd5b81356146918482602086016145d3565b91505092915050565b6000813590506146a98161503f565b92915050565b6000813590506146be81615056565b92915050565b6000602082840312156146d657600080fd5b60006146e484828501614611565b91505092915050565b6000806040838503121561470057600080fd5b600061470e85828601614611565b925050602061471f8582860161469a565b9150509250929050565b60006020828403121561473b57600080fd5b600082013567ffffffffffffffff81111561475557600080fd5b61476184828501614670565b91505092915050565b60008060006060848603121561477f57600080fd5b600084013567ffffffffffffffff81111561479957600080fd5b6147a586828701614670565b935050602084013567ffffffffffffffff8111156147c257600080fd5b6147ce86828701614670565b925050604084013567ffffffffffffffff8111156147eb57600080fd5b6147f786828701614670565b9150509250925092565b60008060008060008060008060a0898b03121561481d57600080fd5b600089013567ffffffffffffffff81111561483757600080fd5b6148438b828c01614670565b98505060206148548b828c016146af565b975050604089013567ffffffffffffffff81111561487157600080fd5b61487d8b828c01614626565b9650965050606089013567ffffffffffffffff81111561489c57600080fd5b6148a88b828c01614626565b9450945050608089013567ffffffffffffffff8111156148c757600080fd5b6148d38b828c01614626565b92509250509295985092959890939650565b60006148f18383614925565b60208301905092915050565b60006149098383614a8b565b905092915050565b600061491d8383614b2e565b905092915050565b61492e81614ecb565b82525050565b61493d81614ecb565b82525050565b600061494e82614e18565b6149588185614e6b565b935061496383614de8565b8060005b8381101561499457815161497b88826148e5565b975061498683614e44565b925050600181019050614967565b5085935050505092915050565b60006149ac82614e23565b6149b68185614e7c565b9350836020820285016149c885614df8565b8060005b85811015614a0457848403895281516149e585826148fd565b94506149f083614e51565b925060208a019950506001810190506149cc565b50829750879550505050505092915050565b6000614a2182614e2e565b614a2b8185614e8d565b935083602082028501614a3d85614e08565b8060005b85811015614a795784840389528151614a5a8582614911565b9450614a6583614e5e565b925060208a01995050600181019050614a41565b50829750879550505050505092915050565b6000614a9682614e39565b614aa08185614e9e565b9350614ab0818560208601614f23565b614ab981615017565b840191505092915050565b6000614acf82614e39565b614ad98185614eaf565b9350614ae9818560208601614f23565b614af281615017565b840191505092915050565b6000614b0882614e39565b614b128185614ec0565b9350614b22818560208601614f23565b80840191505092915050565b60006060830160008301518482036000860152614b4b8282614a8b565b91505060208301518482036020860152614b658282614a8b565b91505060408301518482036040860152614b7f8282614a8b565b9150508091505092915050565b60006060830160008301518482036000860152614ba98282614a8b565b91505060208301518482036020860152614bc38282614a8b565b91505060408301518482036040860152614bdd8282614a8b565b9150508091505092915050565b614bf381614f07565b82525050565b6000614c058284614afd565b915081905092915050565b6000606082019050614c256000830186614934565b614c326020830185614934565b8181036040830152614c448184614ac4565b9050949350505050565b60006020820190508181036000830152614c688184614a16565b905092915050565b60006060820190508181036000830152614c8a8186614ac4565b9050614c996020830185614934565b8181036040830152614cab8184614943565b9050949350505050565b600060a0820190508181036000830152614ccf8188614ac4565b9050614cde6020830187614934565b614ceb6040830186614bea565b8181036060830152614cfd81856149a1565b90508181036080830152614d118184614943565b90509695505050505050565b60006080820190508181036000830152614d378187614ac4565b9050614d466020830186614bea565b614d536040830185614934565b8181036060830152614d6581846149a1565b905095945050505050565b60006020820190508181036000830152614d8a8184614b8c565b905092915050565b6000614d9c614dad565b9050614da88282614f88565b919050565b6000604051905090565b600067ffffffffffffffff821115614dd257614dd1614fe8565b5b614ddb82615017565b9050602081019050919050565b6000819050602082019050919050565b6000819050602082019050919050565b6000819050602082019050919050565b600081519050919050565b600081519050919050565b600081519050919050565b600081519050919050565b6000602082019050919050565b6000602082019050919050565b6000602082019050919050565b600082825260208201905092915050565b600082825260208201905092915050565b600082825260208201905092915050565b600082825260208201905092915050565b600082825260208201905092915050565b600081905092915050565b6000614ed682614edd565b9050919050565b600073ffffffffffffffffffffffffffffffffffffffff82169050919050565b6000819050919050565b600060ff82169050919050565b82818337600083830152505050565b60005b83811015614f41578082015181840152602081019050614f26565b83811115614f50576000848401525b50505050565b60006002820490506001821680614f6e57607f821691505b60208210811415614f8257614f81614fb9565b5b50919050565b614f9182615017565b810181811067ffffffffffffffff82111715614fb057614faf614fe8565b5b80604052505050565b7f4e487b7100000000000000000000000000000000000000000000000000000000600052602260045260246000fd5b7f4e487b7100000000000000000000000000000000000000000000000000000000600052604160045260246000fd5b6000601f19601f8301169050919050565b61503181614ecb565b811461503c57600080fd5b50565b61504881614efd565b811461505357600080fd5b50565b61505f81614f07565b811461506a57600080fd5b5056fea2646970667358221220e0e348f09ef8a6fd02014a05dbddb650a5f7b9c321f30ad15b66e4b4ba1c998764736f6c63430008040033",
  "linkReferences": {},
  "deployedLinkReferences": {}
}